{
  "_format": "hh-sol-artifact-1",
  "contractName": "WavePortal",
  "sourceName": "contracts/WavePortal.sol",
  "abi": [
    {
      "inputs": [],
      "stateMutability": "payable",
      "type": "constructor"
    },
    {
      "anonymous": false,
      "inputs": [
        {
          "indexed": true,
          "internalType": "address",
          "name": "from",
          "type": "address"
        },
        {
          "indexed": false,
          "internalType": "uint256",
          "name": "timestamp",
          "type": "uint256"
        },
        {
          "indexed": false,
          "internalType": "string",
          "name": "message",
          "type": "string"
        }
      ],
      "name": "NewWave",
      "type": "event"
    },
    {
      "inputs": [],
      "name": "getAllWaves",
      "outputs": [
        {
          "components": [
            {
              "internalType": "address",
              "name": "waver",
              "type": "address"
            },
            {
              "internalType": "string",
              "name": "message",
              "type": "string"
            },
            {
              "internalType": "uint256",
              "name": "timestamp",
              "type": "uint256"
            }
          ],
          "internalType": "struct WavePortal.Wave[]",
          "name": "",
          "type": "tuple[]"
        }
      ],
      "stateMutability": "view",
      "type": "function"
    },
    {
      "inputs": [],
      "name": "getTotalWaves",
      "outputs": [
        {
          "internalType": "uint256",
          "name": "",
          "type": "uint256"
        }
      ],
      "stateMutability": "view",
      "type": "function"
    },
    {
      "inputs": [
        {
          "internalType": "string",
          "name": "_message",
          "type": "string"
        }
      ],
      "name": "wave",
      "outputs": [],
      "stateMutability": "nonpayable",
      "type": "function"
    }
  ],
  "bytecode": "0x60806040526200004f6040518060400160405280601181526020017f4865726520776520676f20616761696e2e0000000000000000000000000000008152506200005560201b620004ac1760201c565b620001e9565b620000f5816040516024016200006c919062000162565b6040516020818303038152906040527f41304fac000000000000000000000000000000000000000000000000000000007bffffffffffffffffffffffffffffffffffffffffffffffffffffffff19166020820180517bffffffffffffffffffffffffffffffffffffffffffffffffffffffff8381831617835250505050620000f860201b60201c565b50565b60008151905060006a636f6e736f6c652e6c6f679050602083016000808483855afa5050505050565b60006200012e8262000186565b6200013a818562000191565b93506200014c818560208601620001a2565b6200015781620001d8565b840191505092915050565b600060208201905081810360008301526200017e818462000121565b905092915050565b600081519050919050565b600082825260208201905092915050565b60005b83811015620001c2578082015181840152602081019050620001a5565b83811115620001d2576000848401525b50505050565b6000601f19601f8301169050919050565b610e7380620001f96000396000f3fe608060405234801561001057600080fd5b50600436106100415760003560e01c8063449d46c0146100465780639a2cdc0814610062578063bd43a90814610080575b600080fd5b610060600480360381019061005b91906107b1565b61009e565b005b61006a610310565b6040516100779190610adb565b60405180910390f35b61008861035b565b60405161009591906109f7565b60405180910390f35b60016000808282546100b09190610bed565b925050819055506100f66040518060400160405280600c81526020017f257320686173207761766564000000000000000000000000000000000000000081525033610545565b600160405180606001604052803373ffffffffffffffffffffffffffffffffffffffff16815260200183815260200142815250908060018154018082558091505060019003906000526020600020906003020160009091909190915060008201518160000160006101000a81548173ffffffffffffffffffffffffffffffffffffffff021916908373ffffffffffffffffffffffffffffffffffffffff16021790555060208201518160010190805190602001906101b59291906106a6565b506040820151816002015550503373ffffffffffffffffffffffffffffffffffffffff167f5f7e16dc676677766a70e9c5628aa6c54ddb8b6e5188e2ae1e1f17f1ffbea716428360405161020a929190610af6565b60405180910390a26000655af3107a4000905047811061025f576040517f08c379a000000000000000000000000000000000000000000000000000000000815260040161025690610a9b565b60405180910390fd5b60003373ffffffffffffffffffffffffffffffffffffffff1682604051610285906109e2565b60006040518083038185875af1925050503d80600081146102c2576040519150601f19603f3d011682016040523d82523d6000602084013e6102c7565b606091505b505090508061030b576040517f08c379a000000000000000000000000000000000000000000000000000000000815260040161030290610abb565b60405180910390fd5b505050565b60006103536040518060400160405280601581526020017f546f74616c206e6f2e206f66207761766572733a2000000000000000000000008152506000546105e1565b600054905090565b60606001805480602002602001604051908101604052809291908181526020016000905b828210156104a357838290600052602060002090600302016040518060600160405290816000820160009054906101000a900473ffffffffffffffffffffffffffffffffffffffff1673ffffffffffffffffffffffffffffffffffffffff1673ffffffffffffffffffffffffffffffffffffffff16815260200160018201805461040890610cc1565b80601f016020809104026020016040519081016040528092919081815260200182805461043490610cc1565b80156104815780601f1061045657610100808354040283529160200191610481565b820191906000526020600020905b81548152906001019060200180831161046457829003601f168201915b505050505081526020016002820154815250508152602001906001019061037f565b50505050905090565b610542816040516024016104c09190610a19565b6040516020818303038152906040527f41304fac000000000000000000000000000000000000000000000000000000007bffffffffffffffffffffffffffffffffffffffffffffffffffffffff19166020820180517bffffffffffffffffffffffffffffffffffffffffffffffffffffffff838183161783525050505061067d565b50565b6105dd828260405160240161055b929190610a3b565b6040516020818303038152906040527f319af333000000000000000000000000000000000000000000000000000000007bffffffffffffffffffffffffffffffffffffffffffffffffffffffff19166020820180517bffffffffffffffffffffffffffffffffffffffffffffffffffffffff838183161783525050505061067d565b5050565b61067982826040516024016105f7929190610a6b565b6040516020818303038152906040527f9710a9d0000000000000000000000000000000000000000000000000000000007bffffffffffffffffffffffffffffffffffffffffffffffffffffffff19166020820180517bffffffffffffffffffffffffffffffffffffffffffffffffffffffff838183161783525050505061067d565b5050565b60008151905060006a636f6e736f6c652e6c6f679050602083016000808483855afa5050505050565b8280546106b290610cc1565b90600052602060002090601f0160209004810192826106d4576000855561071b565b82601f106106ed57805160ff191683800117855561071b565b8280016001018555821561071b579182015b8281111561071a5782518255916020019190600101906106ff565b5b509050610728919061072c565b5090565b5b8082111561074557600081600090555060010161072d565b5090565b600061075c61075784610b4b565b610b26565b90508281526020810184848401111561077457600080fd5b61077f848285610c7f565b509392505050565b600082601f83011261079857600080fd5b81356107a8848260208601610749565b91505092915050565b6000602082840312156107c357600080fd5b600082013567ffffffffffffffff8111156107dd57600080fd5b6107e984828501610787565b91505092915050565b60006107fe8383610974565b905092915050565b61080f81610c43565b82525050565b61081e81610c43565b82525050565b600061082f82610b8c565b6108398185610baf565b93508360208202850161084b85610b7c565b8060005b85811015610887578484038952815161086885826107f2565b945061087383610ba2565b925060208a0199505060018101905061084f565b50829750879550505050505092915050565b60006108a482610b97565b6108ae8185610bcb565b93506108be818560208601610c8e565b6108c781610db1565b840191505092915050565b60006108dd82610b97565b6108e78185610bdc565b93506108f7818560208601610c8e565b61090081610db1565b840191505092915050565b6000610918603583610bdc565b915061092382610dc2565b604082019050919050565b600061093b601583610bdc565b915061094682610e11565b602082019050919050565b600061095e600083610bc0565b915061096982610e3a565b600082019050919050565b600060608301600083015161098c6000860182610806565b50602083015184820360208601526109a48282610899565b91505060408301516109b960408601826109c4565b508091505092915050565b6109cd81610c75565b82525050565b6109dc81610c75565b82525050565b60006109ed82610951565b9150819050919050565b60006020820190508181036000830152610a118184610824565b905092915050565b60006020820190508181036000830152610a3381846108d2565b905092915050565b60006040820190508181036000830152610a5581856108d2565b9050610a646020830184610815565b9392505050565b60006040820190508181036000830152610a8581856108d2565b9050610a9460208301846109d3565b9392505050565b60006020820190508181036000830152610ab48161090b565b9050919050565b60006020820190508181036000830152610ad48161092e565b9050919050565b6000602082019050610af060008301846109d3565b92915050565b6000604082019050610b0b60008301856109d3565b8181036020830152610b1d81846108d2565b90509392505050565b6000610b30610b41565b9050610b3c8282610cf3565b919050565b6000604051905090565b600067ffffffffffffffff821115610b6657610b65610d82565b5b610b6f82610db1565b9050602081019050919050565b6000819050602082019050919050565b600081519050919050565b600081519050919050565b6000602082019050919050565b600082825260208201905092915050565b600081905092915050565b600082825260208201905092915050565b600082825260208201905092915050565b6000610bf882610c75565b9150610c0383610c75565b9250827fffffffffffffffffffffffffffffffffffffffffffffffffffffffffffffffff03821115610c3857610c37610d24565b5b828201905092915050565b6000610c4e82610c55565b9050919050565b600073ffffffffffffffffffffffffffffffffffffffff82169050919050565b6000819050919050565b82818337600083830152505050565b60005b83811015610cac578082015181840152602081019050610c91565b83811115610cbb576000848401525b50505050565b60006002820490506001821680610cd957607f821691505b60208210811415610ced57610cec610d53565b5b50919050565b610cfc82610db1565b810181811067ffffffffffffffff82111715610d1b57610d1a610d82565b5b80604052505050565b7f4e487b7100000000000000000000000000000000000000000000000000000000600052601160045260246000fd5b7f4e487b7100000000000000000000000000000000000000000000000000000000600052602260045260246000fd5b7f4e487b7100000000000000000000000000000000000000000000000000000000600052604160045260246000fd5b6000601f19601f8301169050919050565b7f4368726973206973206f7574206f662066756e64732e2048652068617320746f60008201527f207265636861726765206869732077616c6c65742e0000000000000000000000602082015250565b7f4661696c656420746f2073656e642065746865722e0000000000000000000000600082015250565b5056fea2646970667358221220375ea352d24ec3baa800d1228cffd04d742dd918a32ce532d3c0414e4b0e4e4864736f6c63430008040033",
  "linkReferences": {},
  "deployedLinkReferences": {}
}